:020000040800F2
:10000000005000207D1E0008C91E0008C91E0008FF
:10001000C91E0008C91E0008C91E00080000000013
:10002000000000000000000000000000C91E0008E1
:10003000C91E000800000000C91E0008C91E0008F3
:10004000C91E0008C91E0008C91E0008C91E0008F4
:10005000C91E0008C91E0008C91E0008C91E0008E4
:10006000C91E0008C91E0008C91E0008C91E0008D4
:10007000C91E0008C91E0008C91E0008C91E0008C4
:10008000C91E0008C91E0008C91E0008C91E0008B4
:10009000C91E0008C91E0008C91E0008C91E0008A4
:1000A000C91E0008C91E0008C91E0008C91E000894
:1000B000C91E0008C91E0008C91E0008C91E000884
:1000C000C91E0008C91E0008C91E0008C91E000874
:1000D000C91E0008C91E0008C91E0008C91E000864
:1000E000C91E0008C91E0008C91E00080000000043
:1000F0000000000000000000000000000000000000
:1001000000000000000000005FF808F110B5054C89
:10011000237833B9044B13B10448AFF300800123B3
:10012000237010BD68010020000000003432000878
:10013000084B10B51BB108480849AFF300800848C8
:10014000036803B910BD074B002BFBD0BDE810407E
:10015000184700BF00000000343200086C01002086
:10016000640100200000000008B5084CE3686268E4
:100170004FF07E501A6000F0EDF8236962684FF08E
:100180007E501A6000F0E6F8F0E700BF840100201E
:10019000054B0022184601211A705A609A60DA60F5
:1001A0001A6100F039B800BF84010020074A0848EE
:1001B00008B50021121A02F021FAAFF3008002F014
:1001C0009DF901F02BFE01F0FDFF00BF9C03002014
:1001D00068010020022801DC0120704701F0E8BD21
:1001E00008B572B6962000F0C1F8962000F0BEF86F
:1001F000F8E700BF0FB400B5064A83B004AB53F86C
:10020000041B10681A46C068019302F0C9FB012064
:1002100001F0D8FF5401002038B50D46044601F026
:1002200083FA01350CD02369626820461A600121E7
:1002300001F09CFA2046BDE83840002101F092BA56
:1002400038BD00BF431C10B5044619D091F90030E9
:10025000581C04D10FE011F90C3F5A1C0BD09C42E2
:10026000F9D12046896801F0E5FA2046BDE8104042
:10027000002101F077BB0348BDE81040FFF7BABF8B
:1002800010BD00BFF82F000888420AD0421C09D0D8
:10029000013106D008B50448FFF7ACFF4FF0FF303E
:1002A00008BD7047084670470C300008421C0FD04C
:1002B00008B591F900305A1C04D10AE011F90C3F3D
:1002C0005A1C06D09842F9D14868411C01D008BD9B
:1002D00070470348FFF78EFF4FF0FF30F7E700BF8E
:1002E00020300008036870B5DB68054698476B68E6
:1002F0005B6883B12A681C6853689847201A0028F5
:100300006A680DDC50681168836853600029F0D07A
:1003100040688847EBE72B68BDE870409B6818474A
:100320002B6852681B691068BDE87040184700BF11
:100330000148FFF7D7BF00BF7430000838B5054645
:1003400001F05AFC044601F057FC001BA842FAD306
:1003500038BD00BF08B5044901F0B8FD01F006FF43
:10036000BDE80840FFF7EABF002474494FF47A73F0
:1003700003FB00F0FFF7E2BF704700BF074A08B574
:100380001368032043F01003136000F025F80F20DA
:1003900001F09EF8FFF7F0FF002008BD00200240AA
:1003A000024A136801331360704700BFA0010020A8
:1003B000014B1868704700BFA001002010B582B043
:1003C0000190FFF7F5FF0446FFF7F2FF019B001BCA
:1003D0009842F9D302B010BD4FF6FF02064900F073
:1003E0000700CB681A4042F0BF6343F4003343EA8E
:1003F0000023CB60704700BF00ED00E02DE9F04F17
:100400004FF0000883B04346DFF8C0E1694EDFF8E3
:10041000C0C102E00133102B7CD001220C689A404D
:1004200014409442F6D14A68122A00F0998000F2F2
:100430008280022A00F09B8077D9032A00F0948002
:10044000112A02D1CA6802F10408FF2C65D882463D
:1004500002684FEA830B4FF00F0909FA0BF522EA05
:10046000050508FA0BF22A43CAF800204D68EA0095
:10047000D0D5514A504FD2F818A023F003024AF0C9
:10048000010AC7F818A0D7F818A002F180420AF0B4
:10049000010ACDF804A002F5803203F0030ADDF86A
:1004A00004B04FEA8A0AD2F808B009FA0AF970458E
:1004B0002BEA090B70D0604571D0404FB84273D021
:1004C0003F4FB8420CBF4FF003094FF0040909FA3F
:1004D0000AF949EA0B09C2F808903268EF034CBFE9
:1004E0002243A24332607268AF034CBF2243A2434F
:1004F0007260B268EF024CBF2243A243B260F2685E
:10050000AD0203F101034CBF144322EA0404102B93
:10051000F46082D103B0BDE8F08FA3F1080B42680C
:100520004FEA8B0B00F1040A95E7A2B1012A8CD1A6
:10053000D1F80C8089E7234DAA420CD01BD9224D5B
:10054000AA4208D005F58035AA4204D0A5F5801549
:10055000AA427FF47AAF8A68BAB94FF0040874E708
:10056000CA6802F10C0870E74FF000086DE7CA682E
:1005700002F1080869E7A5F58015AA42EBD005F558
:100580008035AA427FF461AFE5E7012A0CBF046120
:1005900044614FF0080858E74FF0000999E74FF021
:1005A000010909FA0AF994E74FF0020909FA0AF970
:1005B0008FE700BF0004014000100240001001401E
:1005C000001401400000211000003110000801401B
:1005D000000C01402DE9F041036882B0DE070446BB
:1005E00040D5BE494A6802F00C02042A00F0378167
:1005F0004A6802F00C02082A00F02D81B74B4FF434
:1006000000371A681D4622F480321A601A6822F4F4
:1006100080221A60FFF7CCFE064616E097FAA7F391
:10062000B3FA83F36A6A97FAA7F3B3FA83F303F092
:100630001F0322FA03F3D90740F11182FFF7B8FE36
:10064000801BB0F5FA7F00F2D38197FAA7F3B3FAD3
:1006500083F343F02003C3F34213012BDED12A6856
:10066000E1E723689F0744D59C4A516811F00C0FBD
:1006700000F0BE80516801F00C01082900F0B48040
:100680002269002A00F02582012292FAA2F3B3FA2D
:1006900083F3DBB29B0003F1844303F584031A6008
:1006A000FFF786FE022706468C4D15E097FAA7F362
:1006B000B3FA83F36A6A97FAA7F3B3FA83F303F002
:1006C0001F0322FA03F3D80700F19C82FFF770FEA4
:1006D000801B642800F28C8197FAA7F3B3FA83F3A6
:1006E00043F02003C3F34213012BDFD12A68E2E772
:1006F00023681A0747D4590700F1DB80E369002B10
:1007000000F07A81754D6A6802F00C02082A00F048
:10071000CC80022B4FF0807300F0418293FAA3F358
:10072000B3FA83F3DBB29B0003F1844303F5840344
:1007300000221A60FFF73CFE2C464FF0007605467B
:1007400015E096FAA6F3B3FA83F3626A96FAA6F373
:10075000B3FA83F303F01F0322FA03F3DB0740F13C
:100760004B81FFF725FE401B642800F2418196FA79
:10077000A6F3B3FA83F343F02003C3F34213012B30
:10078000DFD12268E2E7A269002A00F03981012264
:1007900092FAA2F3B3FA83F35149DBB241F8232072
:1007A000FFF706FE022706464C4D05E0FFF700FE68
:1007B000801B642800F21C8197FAA7F3B3FA83F335
:1007C00097FAA7F3B3FA83F36A6A97FAA7F3B3FA2F
:1007D00083F303F01F0322FA03F3DB07E6D50120BE
:1007E000FFF7ECFD236886E75268D6033FF548AF74
:1007F000022191FAA1F2B2FA82F242F02002C2F38F
:100800004212012A00F0288191FAA1F1B1FA81F196
:10081000324A516A022292FAA2F2B2FA82F202F04B
:100820001F0221FA02F2D50702D52269012A3CD122
:100830002A4DF822296892FAA2F2B2FA82F260698D
:10084000D2B221F0F801904040EA01022A601A0772
:100850007FF551AF97E74A68D5037FF5CFAE4FF4E8
:10086000003191FAA1F2B2FA82F242F02002C2F310
:100870004212012A00F0ED8091FAA1F1B1FA81F162
:10088000164A516A4FF4003292FAA2F2B2FA82F298
:1008900002F01F0221FA02F2D0077FF5E3AE626890
:1008A00022F00402012A3FF4DDAE012002B0BDE8CF
:1008B000F0810A4A0B4BD1691D4641F08051D1614C
:1008C000D26902F080520192019A1A6842F4807251
:1008D0001A60FFF76DFD06460BE000BF00100240F6
:1008E0008004424200700040FFF762FD801B6428D4
:1008F0007ED82B68DA05F7D5012393FAA3F3B3FA70
:1009000083F3CB4ADBB2002142F82310042393FA8D
:10091000A3F3B3FA83F3DBB242F82310FFF748FDE9
:100920004FF002080746C34D41F2883604E0FFF756
:100930003FFDC01BB0425BD898FAA8F3B3FA83F32B
:1009400098FAA8F3B3FA83F343F04003C3F34213D6
:10095000022B0CBF2A6A6A6A98FAA8F3B3FA83F3E7
:1009600003F01F0322FA03F313F00103DFD1E2685F
:10097000002A40F0A881012393FAA3F3B3FA83F38A
:10098000AB49DBB241F82320042393FAA3F3B3FA73
:1009900083F3DBB241F82320E368012B00F0A78149
:1009A000FFF706FD41F288360746A24D4FF00208D8
:1009B00098FAA8F3B3FA83F398FAA8F3B3FA83F397
:1009C00043F04003C3F34213022B0CBF2A6A6A6A46
:1009D00098FAA8F3B3FA83F303F01F0322FA03F3A0
:1009E000D8077FF58BAEFFF7E3FCC01BB042DFD921
:1009F000032002B0BDE8F081002002B0BDE8F08124
:100A0000012393FAA3F3B3FA83F38B49DBB241F8E2
:100A10002320FFF7CDFC02270646864D04E0FFF7B2
:100A2000C7FC801B6428E3D897FAA7F3B3FA83F3D3
:100A300097FAA7F3B3FA83F36A6A97FAA7F3B3FABC
:100A400083F303F01F0322FA03F3D807E7D42368E4
:100A500051E6784A116815E7764A1168DAE6754B6F
:100A60001A6822F480321A606268012A65D0052A69
:100A700000F0D980196821F480211960002A64D11E
:100A8000FFF796FC4FF4003706466A4D15E097FADB
:100A9000A7F3B3FA83F36A6A97FAA7F3B3FA83F377
:100AA00003F01F0322FA03F3DB077FF5DAADFFF74C
:100AB0007FFC801BB0F5FA7F9AD897FAA7F3B3FAB8
:100AC00083F343F02003C3F34213012BDFD12A68E1
:100AD000E2E7012393FAA3F3B3FA83F3DBB29B00BB
:100AE00003F1844303F584031A60FFF761FC0227D6
:100AF0000646504D15E097FAA7F3B3FA83F36A6AF6
:100B000097FAA7F3B3FA83F303F01F0322FA03F370
:100B1000D9077FF5EDADFFF74BFC801B64283FF64E
:100B200067AF97FAA7F3B3FA83F343F02003C3F355
:100B30004213012BDFD12A68E2E71A6822F48022EF
:100B40001A601A6842F480321A60FFF731FC4FF4E1
:100B500000370646374D16E097FAA7F3B3FA83F34A
:100B60006A6A97FAA7F3B3FA83F303F01F0322FA32
:100B700003F3DA073FF575ADFFF71AFC801BB0F5FC
:100B8000FA7F3FF635AF97FAA7F3B3FA83F343F052
:100B90002003C3F34213012BDED12A68E1E793FA65
:100BA000A3F3B3FA83F3DBB29B0003F1844303F5B1
:100BB000840300221A60FFF7FBFB4FF00077064624
:100BC00014E097FAA7F3B3FA83F36A6A97FAA7F3E4
:100BD000B3FA83F303F01F0322FA03F3D9072FD5E7
:100BE000FFF7E6FB801B64283FF602AF97FAA7F3F6
:100BF000B3FA83F343F02003C3F34213012BE0D194
:100C00002A68E3E70B48F823026893FAA3F3B3FAE0
:100C100083F36169DBB222F0F802994041EA0203F2
:100C20000360236865E5054B1A70626826E700BF1C
:100C3000000442420010024080044242021002407E
:100C4000206AB0F5803F7BD04A4A616A536801430D
:100C500023F474130B4353604FF0807393FAA3F3A0
:100C6000B3FA83F3DBB29B0003F1844303F58403FF
:100C7000012119601446FFF79BFB4FF000760546F3
:100C800015E096FAA6F3B3FA83F3626A96FAA6F32E
:100C9000B3FA83F303F01F0322FA03F3DA073FF5F5
:100CA000ABAEFFF785FB401B64283FF6A1AE96FA7A
:100CB000A6F3B3FA83F343F02003C3F34213012BEB
:100CC000DFD12268E2E7012A42D0012090FAA0F2A7
:100CD000B2FA82F22849D2B241F82230042393FAC0
:100CE000A3F3B3FA83F3DBB241F8230054E6FFF732
:100CF0005FFB41F2883607461E4D4FF0020898FA16
:100D0000A8F3B3FA83F398FAA8F3B3FA83F343F0A2
:100D10004003C3F34213022B0CBF2A6A6A6A98FA93
:100D2000A8F3B3FA83F303F01F0322FA03F3DB07FC
:100D30003FF5E4ACFFF73CFBC01BB042DFD957E600
:100D40000C49A3684A6822F4003213434B607BE7E6
:100D5000042191FAA1F1B1FA81F10748C9B240F832
:100D6000213092FAA2F3B3FA83F3DBB240F82320E6
:100D700012E600BF001002400004424230B4214D90
:100D800086B06968AA68EB68286802AC0FC42D8A2F
:100D90001D49ADF804504A6802F00C03082B26D117
:100DA0004FF4701393FAA3F3B3FA83F302F47010C1
:100DB000DBB220FA03F306A80344D20313F8103C75
:100DC00019D54A684FF4003191FAA1F1B1FA81F1D5
:100DD000C9B202F40032CA40024412F8140C0B4AA1
:100DE000B2FBF0F003FB00F006B030BC70470748E0
:100DF00006B030BC7047064800FB03F006B030BCBC
:100E0000704700BF7C3000080010024000127A00DA
:100E100000093D0008B5FFF7B1FF094AF023526809
:100E200093FAA3F3B3FA83F3064902F0F002DBB2BC
:100E300022FA03F3CA5C044BD040186008BD00BF1F
:100E40000010024090300008EC00002008B5FFF7C9
:100E5000E1FF084A4FF4E063526893FAA3F3B3FA50
:100E600083F3054902F4E062DBB222FA03F3CB5CC0
:100E7000D84008BD001002409030000808B5FFF7C8
:100E8000C9FF084A4FF46053526893FAA3F3B3FAC8
:100E900083F3054902F46052DBB222FA03F3CB5C20
:100EA000D84008BD0010024090300008B44A2DE937
:100EB000F04113680C4603F007038B4205460CD241
:100EC000136823F007030B431360136803F0070351
:100ED0008B4273D00120BDE8F08103689E0706D5E0
:100EE000A848AA68416821F0F0010A434260D80787
:100EF0003FD56B68012B00F0C380022B00F0D88037
:100F0000022191FAA1F2B2FA82F242F02002C2F377
:100F10004212012A00F00F8191FAA1F1B1FA81F198
:100F2000984A516A022292FAA2F2B2FA82F202F0CE
:100F30001F0221FA02F2D107CCD5924E41F2883835
:100F4000726822F0030213437360FFF731FA6B6893
:100F50000746012B00F08380022B06D18AE0FFF7C1
:100F600027FAC01B404500F2A080736813F00C0FF5
:100F7000F5D1834A136823F00703234313601368F2
:100F800003F00703A342A5D12B685A0706D57D4875
:100F9000EA68416821F4E0610A4342601B0707D513
:100FA000784A2969536823F4605343EAC1035360C4
:100FB0000F2000F08DFA0020BDE8F081036899074A
:100FC00006D57048AA68416821F0F0010A434260E2
:100FD000DA07DAD56B68012B00F0B080022B00F045
:100FE0009280022191FAA1F2B2FA82F242F020023A
:100FF000C2F34212012A00F0B98091FAA1F1B1FACC
:1010000081F1604A516A022292FAA2F2B2FA82F2A5
:1010100002F01F0221FA02F2D7077FF55BAF594CAD
:1010200041F28837626822F0030213436360FFF7DE
:10103000BFF96B680646012B54D0022B05D15CE04A
:10104000FFF7B6F9801BB8422FD8636813F00C0F76
:10105000F6D199E7FFF7ACF9C01B404525D8736876
:1010600003F00C03042BF5D183E7FFF7A1F9C01BB4
:1010700040451AD8736803F00C03082BF5D178E7C4
:101080004FF4003191FAA1F2B2FA82F242F020025A
:10109000C2F34212012A66D091FAA1F1B1FA81F1AC
:1010A000384A516A4FF400323DE70320BDE8F08131
:1010B0004FF0007191FAA1F2B2FA82F242F02002EE
:1010C000C2F34212012A33D091FAA1F1B1FA81F1AF
:1010D0002C4A516A4FF0007225E7FFF769F9801B2F
:1010E000B842E2D8636803F00C03042BF5D14BE758
:1010F000FFF75EF9801BB842D7D8636803F00C0392
:10110000082BF5D140E74FF0007191FAA1F2B2FA45
:1011100082F242F02002C2F34212012A2CD091FA4C
:10112000A1F1B1FA81F1174A516A4FF000726BE7F1
:10113000144A1168CEE7134A1168F3E64FF4003100
:1011400091FAA1F2B2FA82F242F02002C2F3421204
:10115000012A0ED091FAA1F1B1FA81F1094A516A3E
:101160004FF4003250E7074A11689BE7054A1168BF
:1011700049E7044A1168F3E7024A1168D5E700BF5E
:101180000020024000100240704700BF0346016883
:10119000022210B480F839200A68012422430A6030
:1011A000002083F839405DF8044B70470368012242
:1011B000186A8A4020EA02001862196A07480A433E
:1011C00083421A6205D01A68002042F001021A60B8
:1011D00070475A6C42F400425A64F4E7002C014014
:1011E0001E4A0368904227D0B0F1804F10B411D04E
:1011F000A2F5943290420DD002F58062904209D05F
:101200008C680A6803600123C46282625DF8044B43
:10121000436170474A6823F070031343CA6823F49C
:1012200040738C681343096803600123C4628162C0
:101230005DF8044B436170474A6823F07003134321
:10124000CA6823F44073134303608B68C3620B685E
:1012500083620B690363012343617047002C0140E3
:10126000C0B190F8393010B503F0FF02044663B105
:101270002146022351F8040B84F83930FFF7B0FF00
:10128000012384F83930002010BD80F83820FFF7A2
:101290007BFFEDE7012070472DE9F0410646056828
:1012A000C0682C69376924F4405420432861EB68F6
:1012B000B1687269394323F4B0530A4323F00C0335
:1012C0001343EB606A69B3692A4922F440721343FD
:1012D0008D426B6132D0FFF7B9FD746800EB80007E
:1012E00000EB8000A400B0FBF4F4FFF7AFFD224F49
:1012F0007268A7FB043400EB8000640900EB8000F7
:1013000092002401B0FBF2F8FFF7A0FD716800EB3A
:10131000800000EB80008900B0FBF1F1A7FB0131F8
:101320006422490902FB118212013232A7FB022317
:10133000C3F343132343AB60BDE8F081FFF79EFD89
:10134000746800EB800000EB8000A400B0FBF4F4B4
:10135000FFF794FD084F7268A7FB043400EB800090
:101360009200640900EB80002401B0FBF2F8FFF763
:1013700085FDCBE7003801401F85EB51704700BF6A
:1013800050B338B590F83930044603F0FF02F3B19A
:101390002268022384F83930D368204623F40053AE
:1013A000D360FFF779FF236800211A69012522F431
:1013B00090421A615A69084622F02A025A61DA6894
:1013C00042F40052DA60E16384F8395038BD80F8A5
:1013D0003820FFF7D3FFDBE7012070470F4B30B415
:1013E0009D689A682B46B2F1006F04D030BC103073
:1013F00043F8201070470A4AEC3553F8044BAB42CF
:1014000042F8044FF9D14FF000521346034C10300C
:10141000A26043F8201030BC704700BF00ED00E030
:10142000FCFFFF1FF8B5244B244C5D6A1A6923604A
:10143000D00706D5224A6FF0010119611368013304
:1014400013601D4B1A69910713D56FF002021D4EF0
:101450001A6133889BB233BB1B4F3B68FBB14FF61D
:10146000FF70ADB200F0B0FB35803A682368013AF6
:101470003A601A69520709D56FF00402134E1A61D7
:101480005D6A3368EB1AB3F57A7F00D2F8BDFEF7D8
:1014900087FF236805F57A7235609A63F8BDFEF719
:1014A00047FF2368E5E7308880B200F08DFB00231A
:1014B00033802368DDE700BF000800400003002000
:1014C000F0010020AC010020F4010020A401002064
:1014D000274B70B5DA6982B042F00402DA61DA694A
:1014E000244C02F004020192019A1A69002542F08C
:1014F00004021A611A69204E22F004021A6100F0F7
:1015000047F81E4B1E4A1B681E49A2FB03239B0C77
:10151000013B4FF0FF32204684E80A00E26025617B
:10152000A560FFF79DFE29462046FFF73FFE2046B7
:101530000421FFF73BFE22681E20536A03F57A71EF
:10154000916311493360FFF749FF104B4FF0804220
:101550001A6023682046DA6842F00102DA60DA682D
:1015600042F00402DA60FFF711FE284602B070BDB7
:101570000010024000030020A4010020EC00002025
:1015800083DE1B43000800402514000800E100E052
:10159000114A536803F00C03082B0ED153685168AD
:1015A000C3F38343C90303F1020311D552689203C5
:1015B0000ED40A4A02FB03F300E0084B064A08482F
:1015C00052680849C2F30312825CD3400B60704733
:1015D000054A02FB03F3F1E70010024000127A0013
:1015E000A0300008EC00002000093D0030B50123C8
:1015F00091B0069300B1052307934FF480324FF466
:10160000E0130024022506A80F9308940D950E926E
:10161000FEF7E0FF034610B1204611B030BD4FF495
:10162000806229460F2401A8029503930593019433
:101630000492FFF73BFCB0FA80F0400911B030BDD6
:1016400070B590B04FF460130121002410220326DE
:10165000022506A80F9306960A9107940E940B9202
:101660000D95FEF7B7FF034610B1204610B070BDD0
:101670004FF4806229460F2401A802950393059335
:1016800001940492FFF712FCB0FA80F0400910B008
:1016900070BD00BF08B50120FFF7A8FF00B108BD6D
:1016A000FFF7A4FF0028FAD1FFF7CAFF0028F6D100
:1016B000FEE700BF70B5174C174B2268174842F081
:1016C0000102226062681649134063602368154A6C
:1016D00023F0847323F48033236023684FF41F06C0
:1016E00023F48023236063684FF0006523F4FE0336
:1016F0006360A66085601160FEF740FEFFF7CAFFD9
:10170000236943F004032361236923F00403236165
:1017100070BD00BF001002400000FFF800ED00E0C7
:1017200000127A00EC00002070B505464B1C0C46F8
:10173000297015D0C1F3031000F028F806460021E7
:10174000204600F077F804F00F04012306F10801A9
:1017500006F11002A34014366B60A960EA602E61A6
:1017600070BD00BF90F9000000F0FCB8012990F9AD
:10177000000018BF002100F05DB800BF08B5FFF7FA
:1017800007FFBDE80840FEF7F9BD00BF00B585B012
:1017900003283BD8DFE800F02C1E10021F4B204826
:1017A0009A6942F020029A619B6903F02003029338
:1017B000029B05B05DF804FB184B1A489A6942F089
:1017C00010029A619B6903F010030193019B05B01D
:1017D0005DF804FB114B14489A6942F008029A61C3
:1017E0009B6903F008030093009B05B05DF804FBC0
:1017F0000A4B0E489A6942F004029A619B6903F011
:1018000004030393039B05B05DF804FB0848FEF74F
:10181000F1FC002005B05DF804FB00BF00100240A1
:101820000014014000100140000C0140000801407C
:10183000E43000082DE9F043054687B0C0F30310FB
:1018400001F00F08C1F30216C1F3C319FFF79EFFA1
:10185000414AEFB2946907F00F0E44F0010494611D
:10186000926902F001020192019BB9F1000F11D0BF
:1018700009F1FF3108290DD8DFE801F03F454B5150
:10188000575F05673900354A536823F4406343F4D2
:1018900000635360324B012253F8283002FA0EF2F3
:1018A000032402A90393049602920594FEF7A6FD71
:1018B000A7F10D03012B12D90F2D06D0A7F11303A9
:1018C000012B02D907B0BDE8F083244A536823F006
:1018D000E06343F00073536007B0BDE8F0831F4A34
:1018E000536823F0E06343F080635360E6E71B4AEC
:1018F000536843F440635360CCE7184A536843F09D
:1019000001035360C6E7154A536843F0020353606E
:10191000C0E7124A536843F004035360BAE70F4A22
:10192000536843F008035360B4E70C4A536823F04C
:10193000300343F010035360ACE7084A536823F0C8
:10194000C00343F040035360A4E7044A536843F4E0
:10195000407353609EE700BF00100240000001404A
:10196000B030000870B50C46C5B2C0F30310FFF7E5
:101970000DFF05F00F03ECB1022C1CD9032C3AD15A
:10198000072B0BD89B0002689C40144212D00268BF
:10199000042101FA03F31343036070BD05F007054A
:1019A000AD004368AC401C4204D042680423AB4005
:1019B0001343436070BD072B1ED905F00705AD002A
:1019C00003224168AA400A420BD14168082202FA68
:1019D00005F6314341604168013DAA4021EA020217
:1019E0004260012C1BD0C268012101FA03F322EAF4
:1019F0000303C36070BD70BD9A0003210568914068
:101A00002942EED10568082101FA02F63543056046
:101A10000568013A914025EA01010160E1E7C268E9
:101A20009C401443C46070BDF0B4114B046990F93C
:101A3000192007688668C568DC60446900210132A6
:101A40001F605E609D601C6199610AD0F0BC90F9D6
:101A50001820074801320CBF04220C225A61FFF7FC
:101A60008FBC08220248F0BC5A61FFF789BC00BF56
:101A70003C030020F0B5044685B008460E463A49BE
:101A80001546FEF713FC394907462846FEF70EFCBB
:101A900001463846FEF7F8FB354B2060984246D0A9
:101AA000344B984235D0344B98420CD103F5E43393
:101AB000DA69022142F48022DA61DB69616003F4B1
:101AC00080230393039B30462749FEF7BBFB284640
:101AD0002649FEF7B7FB721C03D030460121FFF701
:101AE00041FF6B1C03D028460121FFF73BFF002379
:101AF0004FF41652A260E360236163612676657637
:101B00002046FFF791FF1B4B22689A421DD005B07B
:101B1000F0BD03F5E633DA69012142F40032DA61FF
:101B2000DB69616003F400330293029BCBE703F5AA
:101B300058439A69002142F480429A619B6961602E
:101B400003F480430193019BBDE70C4B01221A6013
:101B500020686168A268E368094D0FC52069616962
:101B6000A26907C505B0F0BD503100080831000872
:101B7000003801400044004000480040A801002017
:101B80007C030020026813689B06FCD5C3680449E7
:101B900050680A6013B1C0F308007047C0B27047C4
:101BA0003C030020026813681B06FCD5C368054887
:101BB00002601BB1C1F3080151607047C9B25160A6
:101BC000704700BF3C030020044B054A1360586374
:101BD000DA6842F00202DA60704700BF0008004095
:101BE000B0010020034B186800B1704701221A6051
:101BF000FFF76EBCEC0100200B4B10B5186818B94C
:101C000001221A60FFF764FC084C094922684B6AFC
:101C100003EB024200E0024620684B6A03EB0040FF
:101C20008242F8D210BD00BFEC010020F00100207C
:101C30000008004038B50446FFF7DEFF194B201AB4
:101C4000596A002889B229DD174A184C051480B258
:101C5000156020802088C1F57F4280B2FF3290421B
:101C60004FF6FF750DDD124A13605D63DA6842F0CE
:101C70000202DA60228892B201328B189BB2238072
:101C800038BD22880A48114489B203605963DA6872
:101C9000002142F00202DA60218038BDBDE8384000
:101CA000FEF746BB00080040F4010020AC01002014
:101CB000B0010020034B044A1360DA6822F00202EC
:101CC000DA60704700080040B0010020044B054A6C
:101CD00013601A69920744BF6FF002021A617047DD
:101CE00000080040B0010020024802210322FFF753
:101CF000C1BE00BF7C03002002280ADD074AC31EC4
:101D000052F82300002142F8231020B103685B68D9
:101D10001847002070474FF0FF307047F80100204F
:101D2000022812DC0E4B70B51B680C4616460BB928
:101D3000FFF7DAFFA51936B114F8011B0948FFF7C0
:101D400031FFAC42F8D1304670BD074B033853F831
:101D5000200010B103681B6818474FF0FF30704730
:101D6000A80100207C030020F801002002280DDCDF
:101D70000C4B10B51B680C460BB9FFF7B5FF0A48B2
:101D8000FFF700FF01232070184610BD074B0338F2
:101D900053F8200010B103689B6818474FF0FF33D9
:101DA00018467047A80100207C030020F80100209D
:101DB000022807DD064B033853F8200020B10368E2
:101DC000DB681847012070474FF0FF30704700BFB5
:101DD000F8010020022807DD064B033853F82000E5
:101DE00020B103681B691847002070474FF0FF308F
:101DF000704700BFF8010020022808B504D84FF44E
:101E000000534B60002008BD00F0D6F909230360A1
:101E10004FF0FF3008BD00BF704700BF08B5FFF7A7
:101E2000ADFCFFF7F9FFBDE80840FEF79DB900BF24
:101E3000074A13681918EFF30880814202D2184646
:101E400011607047034B0C221A604FF0FF3070474F
:101E5000F0000020980300200546074C08B52368D1
:101E6000986800F071FA2368D86800F06DFA05B937
:101E7000FEE7FEF7B5F9FBE7540100200C48854664
:101E8000002103E00B4B5B58435004310A480B4BD5
:101E900042189A42F6D30A4A02E0002342F8043B71
:101EA000084B9A42F9D3FFF705FCFEF77FF9FEE7EE
:101EB0000050002038320008EC00002068010020AB
:101EC000680100209C030020FEE700004FF0FF0C9B
:101ED0001CEAD0521EBF1CEAD15392EA0C0F93EABF
:101EE0000C0F6FD01A4480EA010C400218BF5FEA61
:101EF00041211ED04FF0006343EA501043EA5111D4
:101F0000A0FB01310CF00040B1F5000F3EBF4900CD
:101F100041EAD3715B0040EA010062F17F02FD2AD1
:101F20001DD8B3F1004F40EBC25008BF20F00100B4
:101F3000704790F0000F0CF0004C08BF49024CEACB
:101F4000502040EA51207F3AC2BFD2F1FF0340EA5D
:101F5000C250704740F400004FF00003013A5DDCCE
:101F600012F1190FDCBF00F000407047C2F100020F
:101F7000410021FA02F1C2F1200200FA02FC5FEAFC
:101F8000310040F1000053EA4C0308BF20EADC7046
:101F9000704792F0000F00F0004C02BF400010F4B8
:101FA000000F013AF9D040EA0C0093F0000F01F065
:101FB000004C02BF490011F4000F013BF9D041EA87
:101FC0000C018FE70CEAD15392EA0C0F18BF93EA89
:101FD0000C0F0AD030F0004C18BF31F0004CD8D1B3
:101FE00080EA010000F00040704790F0000F17BF3A
:101FF00090F0004F084691F0000F91F0004F14D080
:1020000092EA0C0F01D142020FD193EA0C0F03D1D7
:102010004B0218BF084608D180EA010000F00040DA
:1020200040F0FE4040F40000704740F0FE4040F4B5
:10203000400070474FF0FF0C1CEAD0521EBF1CEA54
:10204000D15392EA0C0F93EA0C0F69D0A2EB030272
:1020500080EA010C49024FEA402037D04FF080530C
:1020600043EA111143EA10130CF000408B4238BFD1
:102070005B0042F17D024FF4000C8B4224BF5B1ADF
:1020800040EA0C00B3EB510F24BFA3EB510340EA2D
:102090005C00B3EB910F24BFA3EB910340EA9C00DB
:1020A000B3EBD10F24BFA3EBD10340EADC001B014B
:1020B00018BF5FEA1C1CE0D1FD2A3FF650AF8B42EF
:1020C00040EBC25008BF20F0010070470CF0004CFC
:1020D0004CEA50207F32C2BFD2F1FF0340EAC25027
:1020E000704740F400004FF00003013A37E792F0E8
:1020F000000F00F0004C02BF400010F4000F013A46
:10210000F9D040EA0C0093F0000F01F0004C02BF40
:10211000490011F4000F013BF9D041EA0C0195E7A9
:102120000CEAD15392EA0C0F08D142027FF47DAF42
:1021300093EA0C0F7FF470AF084676E793EA0C0F32
:1021400004D14B023FF44CAF08466EE730F0004C30
:1021500018BF31F0004CCAD130F000427FF45CAFC0
:1021600031F000437FF43CAF5FE700BF4FEA40022D
:10217000B2F1FE4F0FD34FF09E03B3EB12620DD9B5
:102180004FEA002343F0004310F0004F23FA02F01F
:1021900018BF404270474FF00000704712F1610FC6
:1021A00001D1420205D110F0004008BF6FF000409D
:1021B00070474FF000007047014B1868704700BF30
:1021C0005401002008B5074B044613B10021AFF3BA
:1021D0000080054B1868836A03B198472046FFF7D3
:1021E0003BFE00BF00000000FC3100088A892DE999
:1021F000F041054610070C4657D44B68002B02DC13
:102200000B6C002B18DDE66AB6B102F48052002395
:1022100092B22F682B600AB1626D10E0216A2846E5
:102220000123B047411C024609D12B683BB11D2B4D
:1022300001D0162B46D12F600020BDE8F081A38984
:102240005B0705D56368D21A636B0BB1236CD21A96
:10225000E66A00232846216AB047461CA38905D1B7
:102260002A681AB11D2A01D0162A19D100226260EB
:102270002269D904226004D5421C01D12B6803B91C
:102280006065616B2F600029D6D004F14403994248
:1022900002D0284600F0BAF900206063BDE8F08162
:1022A00043F04003A381BDE8F0810F69002FC3D044
:1022B00093070E680CBF4B690023C7EB06080F603D
:1022C0008B6012E0A3894FF0FF3043F04003A381FD
:1022D000BDE8F0812846216A3A464346A66AB047DF
:1022E0000028EFDD0744C0EB0808B8F1000FF1DC6F
:1022F000A2E7000038B50B6905460C46DBB118B102
:1023000083690BB900F072F80C4B9C4201D16C68E8
:1023100008E00B4B9C4201D1AC6803E0094B9C42A6
:1023200008BFEC68B4F90C302BB128462146BDE853
:102330003840FFF75BBF002038BD00BF9831000870
:10234000B8310008D8310008014620B9044B0549CE
:10235000186800F0B5B8044B1868FFF7CBBF00BF92
:10236000FC310008F522000854010020014900F06A
:10237000A7B800BFF522000810B50446002303608B
:102380004360836081814366C281036143618361ED
:1023900019465C30082200F031F9054B2462636273
:1023A000044BA362044BE362044B236310BD00BFE4
:1023B000092D00082B2D0008632D0008872D00082B
:1023C00070B568234D1E5D430E4605F1740100F0A3
:1023D00061F9044640B1002180E842000C30A06061
:1023E00005F1680200F00AF9204670BD836910B556
:1023F000044633BB8364C3640365124B124A1B68F3
:102400008262984204BF0123836100F01FF860607C
:10241000204600F01BF8A060204600F017F80421C9
:10242000E06000226068FFF7A7FFA0680921012291
:10243000FFF7A2FFE06812210222FFF79DFF0123B0
:10244000A36110BDFC3100086D230008F8B51B4BDB
:1024500007461E68B36913B93046FFF7C7FF483611
:10246000B4687368013B04D4B4F90C5075B1683496
:10247000F8E733682BB938460421FFF7A1FF306035
:1024800008B13668ECE70C233B60F8BD4FF6FF73EC
:10249000E3810123A38165662560A56065602561F0
:1024A0006561A56104F15C002946082200F0A6F8E8
:1024B0006563A563A564E5642046F8BDFC310008AA
:1024C0002DE9F8438046894600F14804002694B17E
:1024D000A5686768013F0CD4AB89012B07D9B5F912
:1024E0000E30013303D040462946C84706436835BD
:1024F000F0E72468EBE73046BDE8F8830E4B70B593
:102500001E460E4C0025E41AA410A54204D056F82D
:10251000253098470135F8E700F062FD084B094C7B
:102520001E46E41AA4100025A54204D056F8253012
:1025300098470135F8E770BD580100205801002088
:102540005801002060010020F0B58B8991B09D07F3
:1025500006460C4625D4B1F90E10002908DAA389E5
:10256000002513F0800F14BF40274FF480670DE063
:1025700001AA00F0EFFC0028F1DB029D4FF4806718
:1025800005F47045A5F500514D424D4130463946A0
:1025900000F080F860B9A3899A051DD443F00203C6
:1025A000A38104F14703236023610123636113E0E6
:1025B0000A4BB362A389206043F08003A3812061AA
:1025C00067614DB13046B4F90E1000F0D5FC18B17A
:1025D000A38943F00103A38111B0F0BD6D2300086E
:1025E00010B5C9B202449042034605D01C780130B0
:1025F0008C42F8D1184610BD002010BD034602449D
:10260000934202D003F8011BFAE7704730B5002966
:102610003CD051F8042C0B1F1D49002AB8BF9B1851
:102620000A680C4612B95A600B6030BD93420DD255
:1026300019685818904201BF5A5852181A604268D7
:1026400023605A6030BD994203D80A465168002978
:10265000F9D1146815199D420AD11B682344D0187A
:102660008842136012D10868034413604B680CE081
:1026700002D90C23036030BD1C681819884201BFC1
:1026800008684968001918605960536030BD00BF80
:10269000FC02002070B5CC1C24F0030408340C2C80
:1026A00038BF0C24002C064603DA0C2333600020CC
:1026B00070BD8C42F9D3204A136810461946A1B167
:1026C0000A68121B0ED40B2A03D90A608B188C508F
:1026D0001FE08B420BBF5A684A6802605A6018BFFD
:1026E0000B4616E00B464968E9E7144D2B681BB909
:1026F000304600F0F9FA28603046214600F0F4FA3E
:10270000421C0346D1D0C51C25F0030585420AD1E1
:102710001C6003F10B001A1D20F00700821A0AD07A
:102720005142995070BD3046E91A00F0DDFA01308F
:10273000BBD02B46ECE770BDFC020020F802002065
:10274000936810B5013B002B936009DA9469A342AA
:1027500002DBCBB20A2B03D1BDE8104000F018BB5E
:102760001368581C10601970C8B210BDF8B5064641
:102770000F461446D518AC4208D0304614F8011B59
:102780003A46FFF7DDFF431CF5D100E00020F8BD1D
:102790002DE9F0439DB00D4690460393064618B1CF
:1027A00083690BB9FFF722FE754B9D4201D1756815
:1027B00008E0744B9D4201D1B56803E0724B9D4225
:1027C00008BFF568AB891C070AD52B6943B1002304
:1027D000099320238DF8293030238DF82A3041E0E9
:1027E0003046294600F03AFB0028F0D04FF0FF3089
:1027F000C2E0039A0134111D12680391002ABBBF85
:10280000524243F0020307920792B8BF0493237821
:102810002E2B7BD0DFF88081217840460322FFF702
:10282000DFFE38B1049AC8EB000040238340134315
:102830000493013421785548062204F101088DF8EB
:102840002810FFF7CDFE002800F08580504B002BAC
:1028500078D1039B073323F0070308330393099BC5
:102860003B44099343461C4613F8012B1AB9B4EBB9
:1028700008090ED002E0252AF5D1F8E730462946AE
:1028800042464B46FFF772FF013070D0099B4B4424
:1028900009932378002B6AD000234FF0FF32049372
:1028A0000793059206938DF853301A9304F10108AB
:1028B0004446DFF8E890217848460522FFF790FE6D
:1028C00008F10108049B30B1C9EB000001228240ED
:1028D00013430493ECE7D80644BF20228DF853201D
:1028E000190744BF2B228DF8532022782A2A80D042
:1028F000234607991C4622780133303A092A03D827
:102900000A2000FB0121F5E7079180E763782A2B75
:102910000AD1039B02341A1D1B680392002BB8BF17
:102920004FF0FF33059375E7611C00220C462378B6
:102930000131303B092B03D80A2000FB0232F5E7B6
:10294000059267E703AB0093304604A92A46114B72
:10295000AFF3008007E003AB0093304604A92A469A
:102960000C4B00F0A1F8421C07467FF478AFAB890E
:102970005B063FF53BAF09981DB0BDE8F08300BF93
:1029800098310008B8310008D83100080A32000830
:10299000000000006D270008063200080032000821
:1029A00030B505460C461346034A294610682246B0
:1029B000BDE83040FFF7ECBE540100202DE9F8439C
:1029C00091461F468A680B6906469342B8BF134674
:1029D000C9F8003091F843200C46DDF8208012B190
:1029E0000133C9F800302368990642BFD9F8003096
:1029F0000233C9F80030256815F006051CD094F89C
:102A000043302268003318BF012392061FD5E11816
:102A1000302081F843005A1C94F8451022440233B8
:102A200082F8431013E03046394604F119020123BD
:102A3000C047013007D00135E368D9F800209B1A60
:102A40009D42F0DBDBE74FF0FF30BDE8F883304616
:102A5000394604F14302C0470130F4D02268D9F866
:102A60000050E36802F00602042A08BF5D1B2269D9
:102A7000A3680CBF25EAE57500259342C4BF9B1AE5
:102A8000ED184FF00009A9450ADA3046394604F13D
:102A90001A020123C0470130D5D009F10109F2E73C
:102AA0000020BDE8F88300002DE9FF410C461746E1
:102AB000227E98466E2A06460A9B01F1430100F0E9
:102AC000B08012D8632A23D00AD8002A00F0BD8033
:102AD000582A40F0CC8084F84520DFF804E257E023
:102AE000642A1ED0692A1CD0C1E0732A00F0B1808C
:102AF00009D86F2A2ED0702A40F0B980226842F09F
:102B0000200222603FE0752A24D0782A3BD0AEE034
:102B10001A6804F14205111D1960136884F84230E7
:102B2000A9E020681A6810F0800F02D0101D18600C
:102B300008E010F0400F02F10400186002D0B2F972
:102B4000003000E01368002B3EDA2D225B4284F84F
:102B5000432039E020681A6810F0800F02D0101D61
:102B6000186007E010F0400F02F10400186001D077
:102B7000138800E01368227EDFF864E16F2A0CBF3F
:102B800008220A221CE07822DFF858E184F8452068
:102B90002268186812F0800F00F104051D6003D14F
:102BA000550601D5038800E00368D00744BF42F012
:102BB000200222601BB9226822F02002226010222B
:102BC000002084F8430002E0DFF814E10A2265687F
:102BD000002DA8BF2068A560A4BF20F004002060DD
:102BE00003B965B10D46B3FBF2F002FB10331EF8DA
:102BF000033005F8013D03460028F4D100E00D46FE
:102C0000082A0BD12368DA0708D5236962689A423B
:102C1000DEBF302305F8013C05F1FF35491B21617A
:102C20002EE025681A6815F0800F606903D0151D25
:102C30001D60136808E015F0400F02F104051D60E7
:102C4000136801D0188000E01860002323610D464E
:102C500016E01A68111D196015680021284662687F
:102C6000FFF7BEFC08B1401B6060636804E004F13C
:102C7000420584F8422001232361002384F8433075
:102C8000CDF800803046214603AA3B46FFF796FE6A
:102C9000013002D14FF0FF301FE0304639462A465E
:102CA0002369C0470130F5D023689B0705D4E0684D
:102CB000039B9842B8BF18460FE00025E368039ACB
:102CC0009B1A9D42F3DA3046394604F1190201237A
:102CD000C0470130DED00135F0E704B0BDE8F08137
:102CE000113200082232000838B5064C0023054690
:102CF00008462360FFF79CF8431C02D1236803B108
:102D00002B6038BD9803002010B50C46B1F90E10A9
:102D100000F054F90028ABBF636DA3891B1823F49E
:102D20008053ACBF6365A38110BD2DE9F0411D4602
:102D30008B890746DB050C46164605D5B1F90E1002
:102D40000022022300F028F9A389384623F4805397
:102D5000A381B4F90E1032462B46BDE8F04100F0D5
:102D60006BB810B50C46B1F90E1000F015F9431C04
:102D7000A38915BF606523F4805343F48053A38176
:102D800018BFA38110BDB1F90E1000F0D3B8000038
:102D900070B50D461446064618B183690BB9FFF7A6
:102DA00025FB224B9C4201D1746808E0204B9C42D9
:102DB00001D1B46803E01F4B9C4208BFF468A369CB
:102DC000A360A3891A0709D523693BB12368206949
:102DD000EDB2181A636998420FDB08E030462146CD
:102DE00000F03CF80028F1D04FF0FF3070BD3046C5
:102DF0002146FFF77FFA0028F6D1A3680130013B96
:102E0000A36023685A1C22601D706369984204D035
:102E1000A389DB0707D50A2D05D130462146FFF7E8
:102E200069FA0028E0D1284670BD00BF983100083B
:102E3000B8310008D831000838B5074C05460020E5
:102E40002060084611461A46FEF76AFF431C02D16D
:102E5000236803B12B6038BD98030020314B70B557
:102E60001D6806460C4625B1AB6913B92846FFF725
:102E7000BDFA2D4B9C4201D16C6808E02B4B9C4263
:102E800001D1AC6803E02A4B9C4208BFEC68A389DF
:102E90009AB211071DD4D50602D40922326038E057
:102EA000500712D5616B41B104F14403994202D03D
:102EB0003046FFF7ABFB00236363A38923F02403B1
:102EC000A3810023636023692360A38943F008037F
:102ED000A38123694BB9A38903F42073B3F5007F61
:102EE00003D030462146FFF72FFBA38913F00102E0
:102EF00005D00022A26062695242A26103E09907F4
:102F000058BF6269A26022694AB903F0800080B2AA
:102F100030B143F04003A3814FF0FF3070BD00207B
:102F200070BD00BF5401002098310008B83100087E
:102F3000D831000838B5064C002305460846236002
:102F4000FEF7DAFE431C02D1236803B12B6038BDC3
:102F50009803002038B5074C002305460846114663
:102F60002360FEF749FF431C02D1236803B12B60A5
:102F700038BD00BF9803002038B5064C0023054635
:102F800008462360FDF726F9431C02D1236803B1EC
:102F90002B6038BD9803002038B5074C054600204B
:102FA0002060084611461A46FEF714FF431C02D162
:102FB000236803B12B6038BD9803002038B5074C57
:102FC000054600202060084611461A46FEF7CEFE50
:102FD000431C02D1236803B12B6038BD9803002045
:102FE000F8B500BFF8BC08BC9E467047F8B500BFF6
:102FF000F8BC08BC9E467047636F756C64206E6FAA
:10300000742070696E6F75740000000070696E6DD9
:103010006170206D69732D6D61746368000000003C
:1030200070696E6D6170206E6F7420666F756E646E
:1030300020666F72207065726970686572616C00DD
:1030400070696E6D6170206E6F7420666F756E644E
:1030500020666F722066756E6374696F6E00000083
:10306000E51B0008F91B0008B51C0008CD1C000872
:10307000351C000860300008980100200203040598
:10308000060708090A0B0C0D0E0F101001020000B4
:1030900000000000010203040102030406070809FE
:1030A00000000000000000000102030406070809F8
:1030B00000000000010000001100000002000000FC
:1030C0001200000003000000000011100000211099
:1030D0000000311000001210000022100000321019
:1030E0000000001050696E6D6170206572726F7221
:1030F0003A2077726F6E6720706F7274206E756DF4
:103100006265722E000000000300000000440040D1
:10311000100000000A00000000380140100000000C
:103120001700000000380140900100001B00000063
:1031300000480040100000002B0000000048004044
:1031400090020000FF000000FFFFFFFF00000000F2
:1031500002000000004400401300000009000000CD
:103160000038014013000000160000000038014044
:10317000930100001A000000004800401300000006
:103180002A0000000048004093020000FF000000F9
:10319000FFFFFFFF00000000000000000000000033
:1031A000000000000000000000000000000000001F
:1031B000000000000000000000000000000000000F
:1031C00000000000000000000000000000000000FF
:1031D00000000000000000000000000000000000EF
:1031E00000000000000000000000000000000000DF
:1031F000000000000000000043000000F400002078
:10320000232D302B2000686C4C00656667454647CF
:103210000030313233343536373839414243444552
:1032200046003031323334353637383961626364C1
:083230006566000000000000CB
:1032380000A24A049C030020000000009831000806
:10324800B8310008D8310008000000000000000074
:103258000000000000000000F83100080000000035
:103268000000000000000000000000000000000056
:103278000000000000000000000000000000000046
:103288000000000000000000000000000000000036
:103298000000000000000000F400002031010008D8
:0C32A800910100080D010008000000006A
:0400000508001E7D54
:00000001FF
