:100000000020001061090000910900009309000020
:100010009509000097090000990900000000000000
:100020000000000000000000000000009B0900002C
:100030009D090000000000009F090000A1090000C8
:10004000A3090000A3090000A3090000A309000000
:10005000A3090000A3090000A3090000A3090000F0
:10006000A3090000A3090000000000000000000038
:10007000A309000000000000A3090000A30900007C
:10008000A3090000A3090000A3090000A3090000C0
:10009000A3090000A3090000A3090000A3090000B0
:1000A000A3090000A3090000A3090000A3090000A0
:1000B000A3090000A3090000A3090000000000003C
:1000C00010B5054C237833B9044B13B10448AFF392
:1000D00000800123237010BD3801001000000000D3
:1000E000501C0000084B10B51BB108480849AFF37D
:1000F00000800848036803B910BD074B002BFBD0F4
:10010000BDE81040184700BF00000000501C000070
:100110003C010010380100100000000008B5084C38
:10012000E36862684FF07E501A6000F0EDF82369D2
:1001300062684FF07E501A6000F0E6F8F0E700BF0A
:1001400054010010054B0022184607211A705A600E
:100150009A60DA601A615A6100F038B854010010F0
:10016000074A084808B50021121A00F0B3FFAFF3A0
:10017000008000F02FFF00F0C3FB00F08FFD00BFF8
:100180009002001038010010022801DC01207047A5
:1001900000F07EBB08B572B6962000F0C1F896203C
:1001A00000F0BEF8F8E700BF0FB400B5064A83B010
:1001B00004AB53F8041B10681A46C068019301F0A1
:1001C0005BF9012000F06AFD2801001038B50D46EA
:1001D000044600F017F901350CD023696268204607
:1001E0001A60012100F03AF92046BDE838400021AC
:1001F00000F030B938BD00BF431C10B5044619D01B
:1002000091F90030581C04D10FE011F90C3F5A1C31
:100210000BD09C42F9D12046896800F031F9204684
:10022000BDE81040002100F041B90348BDE810408E
:10023000FFF7BABF10BD00BFD01A000088420AD035
:10024000421C09D0013106D008B50448FFF7ACFFC5
:100250004FF0FF3008BD704708467047E41A0000B1
:10026000421C0FD008B591F900305A1C04D10AE0A5
:1002700011F90C3F5A1C06D09842F9D14868411C2C
:1002800001D008BD70470348FFF78EFF4FF0FF30E5
:10029000F7E700BFF81A0000036870B5DB68054691
:1002A00098476B685B6883B12A681C6853689847F5
:1002B000201A00286A680DDC506811688368536052
:1002C0000029F0D040688847EBE72B68BDE8704014
:1002D0009B6818472B6852681B691068BDE870401E
:1002E000184700BF0148FFF7D7BF00BF4C1B0000F5
:1002F00038B5054600F042FA044600F03FFA001B0C
:10030000A842FAD338BD00BF08B5044900F04AFB43
:1003100000F098FCBDE80840FFF7EABF00247449EC
:100320004FF47A7303FB00F0FFF7E2BF0B4B30B4DE
:100330009D689A682B4662B9094AC03553F8044B48
:10034000AB4242F8044FF9D14FF080521346034CB0
:10035000A260103043F8201030BC704700ED00E080
:10036000FCFFFF0F10B4264B83B0D3F838220021D6
:1003700022F02002C3F8382219620191019BC72B99
:1003800006D800BF019B01330193019BC72BF8D90D
:100390001B4B01211964194625229A60D3F8382293
:1003A00022F08002C3F83822CB68154AD807FBD563
:1003B00011460323012013679067D2F838322324B3
:1003C00023F48063C2F83832D2F8383223F48073D1
:1003D000C2F83832906414614B69094ADB07FBD5D7
:1003E00000210123C2F8C010C2F8C830D2F8803012
:1003F00043F48033C2F8803003B05DF8044B70479B
:100400000080044070B505464B1C0C4629701FD077
:10041000CEB2A6F10B01032920464FEA54148CBF3B
:1004200000210121A40000F02BF804F1A04406F003
:100430001F06012304F5085004F50A5104F504527F
:10044000B34004F500546B60E86029616A61AC60F8
:1004500070BD00BF90F9000000F028B841B101293B
:1004600005D18268436811680B4313607047704779
:1004700082684168136823EA01031360704700BF74
:100480001F280AD9084B03449800036801F00701AC
:1004900023F0070319430160704700F1102000F5B5
:1004A00080308000F1E700BFF80F01101F28C1F372
:1004B00080030FD90A4A02449000026801F0030148
:1004C00022F0180242EAC10121F4806141EA83234B
:1004D0000360704700F1102000F580308000ECE7E9
:1004E000F80F0110424A2DE9F04F424B0125C2F8A6
:1004F00098501B6889B01C4604930B01B4FBF3F2BF
:1005000003FB1243079090B2002B6CD0049BA846CB
:100510005A009C0083469446A2468E469946002384
:100520000692059401950391029300242546039EAB
:100530005FFA88F7BCF1000FB5BFBCFBF6F0BAFB61
:10054000F6F0000940090130C0F34F0004EB080247
:1005500078BB002C49D00220034603FB02F3DB00EA
:10056000B9FBF3F30133C1EB5303002BB8BF5B427C
:10057000734505DA8B4221D09E468346029501974A
:100580000134E5B2BD420E44D4D3049B08F1010806
:100590009944069BB8F1100F9C44059B9A44039B19
:1005A0000B440393C1D1029B019A584643EA0215BA
:1005B00006E0002CD0D00128CED8CCE745EA0815BB
:1005C000079BC0F30F211B68C0B2DA6842F08002BB
:1005D000DA60596018609D62DA6822F08002DA60A1
:1005E00009B0BDE8F08F1025EAE701200346B4E723
:1005F00000800440C000001010B4013B0539042AFB
:100600001BD8DFE802F00E031114170000220824A3
:1006100041EA83031C4303682243DA605DF8044B1C
:10062000704700221446F3E710220824F0E7202246
:100630000824EDE730220824EAE700242246E7E711
:100640002DE9F84304460F46084625491646FFF7AC
:1006500007FE244905463046FFF702FE01462846BC
:10066000FFF7ECFD0546204B4FF00108D3F8801052
:100670004FF0000941F480512060C3F880102046FB
:100680004FF41651C5F80880C5F80490FFF72AFF0B
:100690004A46434620460821FFF7AEFF3846104938
:1006A000FFF7AAFD30460F49FFF7A6FD7A1C03D0DD
:1006B00038460221FFF7FAFE731C03D030460221B0
:1006C000FFF7F4FE094B9D4208D1094A012100239E
:1006D0006360116020686168064B03C3BDE8F8835E
:1006E000841B0000541B0000008004400080004078
:1006F000740100108402001002685369DB07FCD506
:1007000010687047026853699B06FCD511607047FA
:10071000104A114B10B501241C60D2F880300F49EB
:1007200043F48063C2F880300B680D49A2F5403273
:10073000A1FB03139B0C013B022151601320D360EA
:1007400008495460FFF7F2FD074B4FF400221A608E
:1007500010BD00BF0080044078010010C0000010F0
:1007600083DE1B43E502000000E100E0024B1B6852
:1007700003B17047FFF7CCBF7801001008B5044BF8
:100780001B680BB9FFF7C4FF024B986808BD00BF98
:100790007801001000800140034B98615A6942F0D3
:1007A00001025A61704700BF00800140024A53694C
:1007B00023F001035361704700800140014B012287
:1007C0001A60704700800140024813211222FFF78F
:1007D00037BF00BF8402001002280ADD074AC31E8B
:1007E00052F82300002142F8231020B103685B680F
:1007F0001847002070474FF0FF3070477C01001011
:10080000022812DC0E4B70B51B680C4616460BB95D
:10081000FFF7DAFFA51936B114F8011B0948FFF7F5
:1008200071FFAC42F8D1304670BD074B033853F826
:10083000200010B103681B6818474FF0FF30704765
:1008400074010010840200107C01001002280DDCED
:100850000C4B10B51B680C460BB9FFF7B5FF0A48E7
:10086000FFF74AFF01232070184610BD074B0338DD
:1008700053F8200010B103689B6818474FF0FF330E
:100880001846704774010010840200107C010010AB
:10089000022807DD064B033853F8200020B1036817
:1008A000DB681847012070474FF0FF30704700BFEA
:1008B0007C010010022807DD064B033853F82000A6
:1008C00020B103681B691847002070474FF0FF30C4
:1008D000704700BF7C010010022808B504D84FF40F
:1008E00000534B60002008BD00F0D2F909230360DB
:1008F0004FF0FF3008BD00BF704700BF704700BF1A
:1009000008B5FFF7FBFFFFF7F7FFBDE80840FFF76B
:1009100005BC00BF074A13681918EFF3088081422D
:1009200002D2184611607047034B0C221A604FF038
:10093000FF307047C40000108C0200100546074CC1
:1009400008B52368986800F06BFA2368D86800F04F
:1009500067FA05B9FEE7FFF71DFCFBE72801001069
:100960000649074A074B9A42BEBF51F8040B42F8AA
:10097000040BF8E70448804704480047541C000073
:10098000C000001038010010650300006101000084
:10099000FEE7FEE7FEE7FEE7FEE7FEE7FEE7FEE72F
:1009A000FEE7FEE74FF0FF0C1CEAD0521EBF1CEA28
:1009B000D15392EA0C0F93EA0C0F6FD01A4480EADD
:1009C000010C400218BF5FEA41211ED04FF00063C6
:1009D00043EA501043EA5111A0FB01310CF00040F2
:1009E000B1F5000F3EBF490041EAD3715B0040EA18
:1009F000010062F17F02FD2A1DD8B3F1004F40EBE8
:100A0000C25008BF20F00100704790F0000F0CF0BA
:100A1000004C08BF49024CEA502040EA51207F3A7E
:100A2000C2BFD2F1FF0340EAC250704740F4000059
:100A30004FF00003013A5DDC12F1190FDCBF00F04A
:100A400000407047C2F10002410021FA02F1C2F1F8
:100A5000200200FA02FC5FEA310040F1000053EA94
:100A60004C0308BF20EADC70704792F0000F00F0E2
:100A7000004C02BF400010F4000F013AF9D040EAE8
:100A80000C0093F0000F01F0004C02BF490011F47C
:100A9000000F013BF9D041EA0C018FE70CEAD1537A
:100AA00092EA0C0F18BF93EA0C0F0AD030F0004CFA
:100AB00018BF31F0004CD8D180EA010000F00040AE
:100AC000704790F0000F17BF90F0004F084691F06C
:100AD000000F91F0004F14D092EA0C0F01D14202A6
:100AE0000FD193EA0C0F03D14B0218BF084608D16F
:100AF00080EA010000F0004040F0FE4040F40000B9
:100B0000704740F0FE4040F4400070474FF0FF0C4B
:100B10001CEAD0521EBF1CEAD15392EA0C0F93EA92
:100B20000C0F69D0A2EB030280EA010C49024FEAE4
:100B3000402037D04FF0805343EA111143EA10139D
:100B40000CF000408B4238BF5B0042F17D024FF455
:100B5000000C8B4224BF5B1A40EA0C00B3EB510F30
:100B600024BFA3EB510340EA5C00B3EB910F24BF19
:100B7000A3EB910340EA9C00B3EBD10F24BFA3EB9E
:100B8000D10340EADC001B0118BF5FEA1C1CE0D166
:100B9000FD2A3FF650AF8B4240EBC25008BF20F019
:100BA000010070470CF0004C4CEA50207F32C2BF6D
:100BB000D2F1FF0340EAC250704740F400004FF00A
:100BC0000003013A37E792F0000F00F0004C02BF3B
:100BD000400010F4000F013AF9D040EA0C0093F005
:100BE000000F01F0004C02BF490011F4000F013B5F
:100BF000F9D041EA0C0195E70CEAD15392EA0C0FC7
:100C000008D142027FF47DAF93EA0C0F7FF470AFFE
:100C1000084676E793EA0C0F04D14B023FF44CAF41
:100C200008466EE730F0004C18BF31F0004CCAD1D6
:100C300030F000427FF45CAF31F000437FF43CAF12
:100C40005FE700BF4FEA4002B2F1FE4F0FD34FF013
:100C50009E03B3EB12620DD94FEA002343F0004329
:100C600010F0004F23FA02F018BF404270474FF0D7
:100C70000000704712F1610F01D1420205D110F05E
:100C8000004008BF6FF0004070474FF00000704711
:100C9000014B1868704700BF2801001008B5074BCA
:100CA000044613B10021AFF30080054B1868836A36
:100CB00003B198472046FFF741FE00BF0000000047
:100CC000181C00008A892DE9F041054610070C46E2
:100CD00057D44B68002B02DC0B6C002B18DDE66A46
:100CE000B6B102F48052002392B22F682B600AB191
:100CF000626D10E0216A28460123B047411C02467C
:100D000009D12B683BB11D2B01D0162B46D12F608A
:100D10000020BDE8F081A3895B0705D56368D21A7E
:100D2000636B0BB1236CD21AE66A00232846216A52
:100D3000B047461CA38905D12A681AB11D2A01D0E3
:100D4000162A19D1002262602269D904226004D5D2
:100D5000421C01D12B6803B96065616B2F600029CB
:100D6000D6D004F14403994202D0284600F0BAF9E3
:100D700000206063BDE8F08143F04003A381BDE83B
:100D8000F0810F69002FC3D093070E680CBF4B6929
:100D90000023C7EB06080F608B6012E0A3894FF0B9
:100DA000FF3043F04003A381BDE8F0812846216A6B
:100DB0003A464346A66AB0470028EFDD0744C0EB39
:100DC0000808B8F1000FF1DCA2E7000038B50B69A4
:100DD00005460C46DBB118B183690BB900F072F817
:100DE0000C4B9C4201D16C6808E00B4B9C4201D13A
:100DF000AC6803E0094B9C4208BFEC68B4F90C30C6
:100E00002BB128462146BDE83840FFF75BBF0020E4
:100E100038BD00BFB41B0000D41B0000F41B000051
:100E2000014620B9044B0549186800F0B5B8044BD9
:100E30001868FFF7CBBF00BF181C0000CD0D0000E5
:100E400028010010014900F0A7B800BFCD0D000037
:100E500010B50446002303604360836081814366CC
:100E6000C28103614361836119465C30082200F04E
:100E700031F9054B24626362044BA362044BE362C5
:100E8000044B236310BD00BFE117000003180000EE
:100E90003B1800005F18000070B568234D1E5D43CD
:100EA0000E4605F1740100F061F9044640B10021DD
:100EB00080E842000C30A06005F1680200F00AF9F9
:100EC000204670BD836910B5044633BB8364C36498
:100ED0000365124B124A1B688262984204BF0123C9
:100EE000836100F01FF86060204600F01BF8A060EE
:100EF000204600F017F80421E06000226068FFF748
:100F0000A7FFA06809210122FFF7A2FFE0681221D4
:100F10000222FFF79DFF0123A36110BD181C0000F2
:100F2000450E0000F8B51B4B07461E68B36913B9A0
:100F30003046FFF7C7FF4836B4687368013B04D4F6
:100F4000B4F90C5075B16834F8E733682BB93846FA
:100F50000421FFF7A1FF306008B13668ECE70C23ED
:100F60003B60F8BD4FF6FF73E3810123A381656603
:100F70002560A560656025616561A56104F15C007F
:100F80002946082200F0A6F86563A563A564E56418
:100F90002046F8BD181C00002DE9F843804689461C
:100FA00000F14804002694B1A5686768013F0CD49D
:100FB000AB89012B07D9B5F90E30013303D0404678
:100FC0002946C84706436835F0E72468EBE7304612
:100FD000BDE8F8830E4B70B51E460E4C0025E41A92
:100FE000A410A54204D056F8253098470135F8E7FB
:100FF00000F062FD084B094C1E46E41AA4100025BF
:10100000A54204D056F8253098470135F8E770BD61
:101010002C0100102C0100102C01001034010010D4
:10102000F0B58B8991B09D0706460C4625D4B1F9E1
:101030000E10002908DAA389002513F0800F14BFD1
:1010400040274FF480670DE001AA00F0EFFC002874
:10105000F1DB029D4FF4806705F47045A5F5005162
:101060004D424D413046394600F080F860B9A389C1
:101070009A051DD443F00203A38104F147032360C2
:1010800023610123636113E00A4BB362A3892060EB
:1010900043F08003A381206167614DB13046B4F90C
:1010A0000E1000F0D5FC18B1A38943F00103A38111
:1010B00011B0F0BD450E000010B5C9B20244904217
:1010C000034605D01C7801308C42F8D1184610BD7B
:1010D000002010BD03460244934202D003F8011BD6
:1010E000FAE7704730B500293CD051F8042C0B1FAB
:1010F0001D49002AB8BF9B180A680C4612B95A60ED
:101100000B6030BD93420DD219685818904201BF50
:101110005A5852181A60426823605A6030BD99428A
:1011200003D80A4651680029F9D1146815199D425F
:101130000AD11B682344D0188842136012D1086872
:10114000034413604B680CE002D90C23036030BDEC
:101150001C681819884201BF08684968001918609E
:101160005960536030BD00BF8002001070B5CC1CC8
:1011700024F0030408340C2C38BF0C24002C064641
:1011800003DA0C233360002070BD8C42F9D3204A6F
:10119000136810461946A1B10A68121B0ED40B2A17
:1011A00003D90A608B188C501FE08B420BBF5A6822
:1011B0004A6802605A6018BF0B4616E00B46496841
:1011C000E9E7144D2B681BB9304600F0F9FA2860A6
:1011D0003046214600F0F4FA421C0346D1D0C51C2B
:1011E00025F0030585420AD11C6003F10B001A1D8E
:1011F00020F00700821A0AD05142995070BD304643
:10120000E91A00F0DDFA0130BBD02B46ECE770BDE7
:10121000800200107C020010936810B5013B002B87
:10122000936009DA9469A34202DBCBB20A2B03D1A3
:10123000BDE8104000F018BB1368581C106019700E
:10124000C8B210BDF8B506460F461446D518AC42D4
:1012500008D0304614F8011B3A46FFF7DDFF431C67
:10126000F5D100E00020F8BD2DE9F0439DB00D461A
:1012700090460393064618B183690BB9FFF722FE27
:10128000754B9D4201D1756808E0744B9D4201D1B8
:10129000B56803E0724B9D4208BFF568AB891C0737
:1012A0000AD52B6943B10023099320238DF82930F7
:1012B00030238DF82A3041E03046294600F03AFBD1
:1012C0000028F0D04FF0FF30C2E0039A0134111D26
:1012D00012680391002ABBBF524243F002030792F7
:1012E0000792B8BF049323782E2B7BD0DFF8808140
:1012F000217840460322FFF7DFFE38B1049AC8EB9D
:10130000000040238340134304930134217855485F
:10131000062204F101088DF82810FFF7CDFE002801
:1013200000F08580504B002B78D1039B073323F0CE
:10133000070308330393099B3B44099343461C4628
:1013400013F8012B1AB9B4EB08090ED002E0252AD4
:10135000F5D1F8E73046294642464B46FFF772FF83
:10136000013070D0099B4B4409932378002B6AD03D
:1013700000234FF0FF3204930793059206938DF8F4
:1013800053301A9304F101084446DFF8E8902178BD
:1013900048460522FFF790FE08F10108049B30B192
:1013A000C9EB00000122824013430493ECE7D80606
:1013B00044BF20228DF85320190744BF2B228DF8FB
:1013C000532022782A2A80D0234607991C46227867
:1013D0000133303A092A03D80A2000FB0121F5E73E
:1013E000079180E763782A2B0AD1039B02341A1DE8
:1013F0001B680392002BB8BF4FF0FF33059375E7CE
:10140000611C00220C4623780131303B092B03D8A4
:101410000A2000FB0232F5E7059267E703AB009371
:10142000304604A92A46114BAFF3008007E003AB16
:101430000093304604A92A460C4B00F0A1F8421C48
:1014400007467FF478AFAB895B063FF53BAF099861
:101450001DB0BDE8F08300BFB41B0000D41B00002A
:10146000F41B0000261C00000000000045120000D4
:10147000221C00001C1C000030B505460C4613461B
:10148000034A294610682246BDE83040FFF7ECBE0B
:10149000280100102DE9F84391461F468A680B6920
:1014A00006469342B8BF1346C9F8003091F843206E
:1014B0000C46DDF8208012B10133C9F800302368F2
:1014C000990642BFD9F800300233C9F800302568C8
:1014D00015F006051CD094F843302268003318BF7D
:1014E000012392061FD5E118302081F843005A1CD1
:1014F00094F845102244023382F8431013E030463A
:10150000394604F119020123C047013007D00135E3
:10151000E368D9F800209B1A9D42F0DBDBE74FF02F
:10152000FF30BDE8F8833046394604F14302C04736
:101530000130F4D02268D9F80050E36802F00602C6
:10154000042A08BF5D1B2269A3680CBF25EAE57564
:1015500000259342C4BF9B1AED184FF00009A9451E
:101560000ADA3046394604F11A020123C047013035
:10157000D5D009F10109F2E70020BDE8F8830000A9
:101580002DE9FF410C461746227E98466E2A0646F4
:101590000A9B01F1430100F0B08012D8632A23D0E6
:1015A0000AD8002A00F0BD80582A40F0CC8084F888
:1015B0004520DFF804E257E0642A1ED0692A1CD0D7
:1015C000C1E0732A00F0B18009D86F2A2ED0702AAA
:1015D00040F0B980226842F0200222603FE0752A84
:1015E00024D0782A3BD0AEE01A6804F14205111DE0
:1015F0001960136884F84230A9E020681A6810F076
:10160000800F02D0101D186008E010F0400F02F1AA
:101610000400186002D0B2F9003000E01368002B1B
:101620003EDA2D225B4284F8432039E020681A68B4
:1016300010F0800F02D0101D186007E010F0400F6E
:1016400002F10400186001D0138800E01368227EC4
:10165000DFF864E16F2A0CBF08220A221CE078221E
:10166000DFF858E184F845202268186812F0800FEE
:1016700000F104051D6003D1550601D5038800E083
:101680000368D00744BF42F0200222601BB92268E1
:1016900022F0200222601022002084F8430002E0A1
:1016A000DFF814E10A226568002DA8BF2068A56054
:1016B000A4BF20F00400206003B965B10D46B3FB60
:1016C000F2F002FB10331EF8033005F8013D03462B
:1016D0000028F4D100E00D46082A0BD12368DA0770
:1016E00008D5236962689A42DEBF302305F8013CC1
:1016F00005F1FF35491B21612EE025681A6815F0B8
:10170000800F606903D0151D1D60136808E015F097
:10171000400F02F104051D60136801D0188000E03D
:101720001860002323610D4616E01A68111D196028
:101730001568002128466268FFF7BEFC08B1401B0F
:101740006060636804E004F1420584F842200123EC
:101750002361002384F84330CDF8008030462146D1
:1017600003AA3B46FFF796FE013002D14FF0FF304F
:101770001FE0304639462A462369C0470130F5D07C
:1017800023689B0705D4E068039B9842B8BF1846BE
:101790000FE00025E368039A9B1A9D42F3DA304676
:1017A000394604F119020123C0470130DED001356A
:1017B000F0E704B0BDE8F0812D1C00003E1C0000E5
:1017C00038B5064C0023054608462360FFF7A2F80B
:1017D000431C02D1236803B12B6038BD8C0200107A
:1017E00010B50C46B1F90E1000F054F90028ABBF4B
:1017F000636DA3891B1823F48053ACBF6365A38179
:1018000010BD2DE9F0411D468B890746DB050C46CE
:10181000164605D5B1F90E100022022300F028F972
:10182000A389384623F48053A381B4F90E103246BD
:101830002B46BDE8F04100F06BB810B50C46B1F98D
:101840000E1000F015F9431CA38915BF606523F441
:10185000805343F48053A38118BFA38110BDB1F915
:101860000E1000F0D3B8000070B50D4614460646C1
:1018700018B183690BB9FFF725FB224B9C4201D1BC
:10188000746808E0204B9C4201D1B46803E01F4B10
:101890009C4208BFF468A369A360A3891A0709D50D
:1018A00023693BB123682069EDB2181A6369984235
:1018B0000FDB08E03046214600F03CF80028F1D06C
:1018C0004FF0FF3070BD30462146FFF77FFA002809
:1018D000F6D1A3680130013BA36023685A1C226043
:1018E0001D706369984204D0A389DB0707D50A2DD0
:1018F00005D130462146FFF769FA0028E0D1284695
:1019000070BD00BFB41B0000D41B0000F41B00001E
:1019100038B5074C054600202060084611461A4697
:10192000FEF76EFF431C02D1236803B12B6038BD64
:101930008C020010314B70B51D6806460C4625B16F
:10194000AB6913B92846FFF7BDFA2D4B9C4201D174
:101950006C6808E02B4B9C4201D1AC6803E02A4B39
:101960009C4208BFEC68A3899AB211071DD4D50622
:1019700002D40922326038E0500712D5616B41B1C0
:1019800004F14403994202D03046FFF7ABFB002339
:101990006363A38923F02403A38100236360236985
:1019A0002360A38943F00803A38123694BB9A3896A
:1019B00003F42073B3F5007F03D030462146FFF7D0
:1019C0002FFBA38913F0010205D00022A2606269F7
:1019D0005242A26103E0990758BF6269A26022697E
:1019E0004AB903F0800080B230B143F04003A381D4
:1019F0004FF0FF3070BD002070BD00BF2801001007
:101A0000B41B0000D41B0000F41B000038B5064CCA
:101A10000023054608462360FEF7DEFE431C02D184
:101A2000236803B12B6038BD8C02001038B5074C19
:101A300000230546084611462360FEF74DFF431C70
:101A400002D1236803B12B6038BD00BF8C020010A7
:101A500038B5064C0023054608462360FEF794FB84
:101A6000431C02D1236803B12B6038BD8C020010E7
:101A700038B5074C054600202060084611461A4636
:101A8000FEF718FF431C02D1236803B12B6038BD59
:101A90008C02001038B5074C05460020206008462F
:101AA00011461A46FEF7D2FE431C02D1236803B149
:101AB0002B6038BD8C020010F8B500BFF8BC08BC24
:101AC0009E467047F8B500BFF8BC08BC9E467047FC
:101AD000636F756C64206E6F742070696E6F7574BF
:101AE0000000000070696E6D6170206D69732D6D6E
:101AF000617463680000000070696E6D6170206E33
:101B00006F7420666F756E6420666F7220706572E8
:101B10006970686572616C0070696E6D6170206ECD
:101B20006F7420666F756E6420666F722066756EC6
:101B30006374696F6E0000006D0700007D07000090
:101B4000AD070000BD07000099070000381B00002A
:101B50006C01001012000000008000400100000035
:101B60002E00000000800040030000003A0000004A
:101B70000080004002000000FF000000FFFFFFFFA8
:101B80000000000013000000008000400100000081
:101B90002D00000000800040030000003B0000001A
:101BA0000080004002000000FF000000FFFFFFFF78
:101BB0000000000000000000000000000000000025
:101BC0000000000000000000000000000000000015
:101BD0000000000000000000000000000000000005
:101BE00000000000000000000000000000000000F5
:101BF00000000000000000000000000000000000E5
:101C000000000000000000000000000000000000D4
:101C10000000000043000000C8000010232D302BFE
:101C20002000686C4C0065666745464700303132DD
:101C30003334353637383941424344454600303134
:101C40003233343536373839616263646566000093
:041C50000000000090
:101C540000A24A049002001000000000B41B00001F
:101C6400D41B0000F41B0000000000000000000072
:101C74000000000000000000141C00000000000030
:101C84000000000000000000000000000000000050
:101C94000000000000000000000000000000000040
:101CA4000000000000000000000000000000000030
:101CB4000000000000000000C8000010E500000063
:081CC40045010000C100000011
:04000003000009618F
:00000001FF
